:020000040000fa
:080000000002040000000000f2
:020000040000fa
:100400000f2a25000eff26000e01880000000000c4
:100410000c00070000af2200010020000f000700c1
:10042000000020000000e000020032000000020096
:10043000000000008c060200000000000040da000e
:100440000000fe00a00d20000000e00002003200cd
:10045000002020009001880000000600a102880012
:10046000800078000000eb001a003700e2804000b6
:1004700054a0b4009101ba00e280400054a0b4003e
:100480009102ba00e280400054a0b4000002eb00e8
:10049000472bde00f507b200a6018800602ce100c2
:1004a00008003a000049eb000201e80002003900b0
:1004b0003420ec0002f0a0008301e900f9ff3e00c7
:1004c000040037006128e100010032000082eb00e7
:1004d000040007001101ba000200e000e3ff3a0047
:1004e0000000060004d0a300e20f49001c00390000
:1004f000810278003549ba000201e80002003900a3
:100500003420ec0002f0a0008301e9000f0032006b
:100510002549ba000201e800020039003420ec004d
:1005200002f0a0008301e900080032000400e000ae
:100530000600320015c9ba000201e80002003900c5
:100540003420ec0002f0a0008301e9008180e80083
:1005500054a0b4000300e000e2ff3a0000000600ef
:100560009102ba00055978008301e900f7ff3200d3
:10057000c82ade00055978008301e900f3ff320044
:100580000400e000f1ff320011d9ba00eeff37009d
:1005900003f0a200889fbe008a9fbe008c1f7800d7
:1005a0001c010700230133006450e1004f003200ba
:1005b0006420e1005200320003826c0007003b001f
:1005c0000905d0000306d000820f54000c065d0020
:1005d0000200390002003200890178000306780029
:1005e0008582550004003d000003fd008103fd00ed
:1005f0008502ea008b854200840f720002003b00f6
:1006000060001000e08018006011b8000005eb00e9
:100610007a28e1000a00390006007800c75ddd0095
:10062000f707b200878075002d00370082817100c6
:100630000a017800610560008180d1000080d3004c
:100640008502e900f9ff3b0006044000878448006a
:1006500002003b0060041400e0841c000988a30031
:10066000070032008a81710082817100610164009b
:100670008904d1000884d3008b05e80017003700f7
:100680000978a30013003a000b00e00013003400c7
:100690008b05e9000804440089844c000a44740076
:1006a0000978a3000d003a000b00e00007003400b9
:1006b0008b05e9000804440089844c0001003a00dd
:1006c0000b0020000978a300f7ff32000001eb00c7
:1006d00002003700828171000a0178009200070051
:1006e0000cf0a70001f0a000db0037006420e1005f
:1006f00002003a00838f6c00db0033000801be006b
:100700000200be00d4003700889fbe008a9fbe0052
:100710008c1f7800bf000700c600330003866c0002
:100720006450e1002e0032006420e100330032000a
:100730006150e1002f0032006120e1003100320001
:1007400085855500eb07b000090020000804200053
:10075000050037000804440089844c000a00310079
:100760000603430087834b000001530081815b0037
:10077000f8ff33000203be000800a0000804440094
:1007800089844c00f6ff3900c639dd00830173000f
:1007900001003200130020008904d1000884d30036
:1007a0000998a300050032000800a7000300a0007c
:1007b0008904d1000884d3008b05e8008904d100a6
:1007c0000884d3000001eb000281d200560007002c
:1007d00001f0a1000cf0a70001f0a0009e0037007e
:1007e0006420e100a00032000801be000200be004b
:1007f000f7ff37006120e1009b0032006000b80085
:10080000f3ff37000000200001f82700f0ff370059
:100810000001be006a0007000470a70003f0a100f9
:1008200003f8a30013003a006509b100100032007c
:10083000090035006928e1000200350001002800a8
:100840000000050000004000818048008502e900aa
:10085000fcff3a0000000600f88f4200050035005a
:100860008100d1000080d3008502e800fcff3a003f
:10087000000006008000eb0000000500889fbe001d
:100880008a9fbe00010578000100e00004003500e9
:1008900008003c000000e0002000320005003700a6
:1008a00060001000e080180002003b0001f02c0006
:1008b0001a0037000004be006011b8006b09200068
:1008c0000982cf00020039000882cf000441b00045
:1008d000694252000e00320008003b008281710024
:1008e000610164008904d1000884d3008b05e8000d
:1008f0000442e800f9ff3a0005003700080444000c
:1009000089844c008b05e9000442e900fbff3a00b2
:10091000050007000af0a70001f0a0004f05be0087
:100920004f04be00000006008100200061805500d9
:100930000b003d000b00200061fe2f000100e100d4
:100940001d00340082817100610164008904d100be
:100950000884d3000000e800faff3a00710020008c
:1009600061006400030070000200600009003200b2
:1009700061044400e0844c000988a50005003200b1
:100980008b05e8006808e10002003a008904d10004
:100990000884d300f20f20000258e10005003d005a
:1009a000c75ddd00f907b200898075000800780096
:1009b000000006000bf827008b00780000000500ff
:1009c000c70ade00f107b200f50fb20008003200de
:1009d000e1cf4200020032000170a00024000500b7
:1009e000810f70000100320004080500440005007a
:1009f000810f700002003a00140005008502e90032
:100a00000000400081c04800fcff3b000170a000d6
:100a1000240005000004be00e9ff07000003be003b
:100a20000405be000200be00e5ff0700844f75000c
:100a3000000006000200be006450e1000500360020
:100a40006420e100020036000968a30001003a00ba
:100a50000800be000160a0004f0678004f05be00f0
:100a60004f04be0000000600f0ff2f00f1ff27003a
:100a7000f9ff3700889fbe008a9fbe008c1f780058
:100a8000e4ff0700ebff330003866c006450e100d5
:100a9000240032006420e100270032006150e100b0
:100aa000220032006120e100210032008b854200eb
:100ab000eb07b1000134b800003ab8000804420066
:100ac00089844a00013ab8000030b80088804000ac
:100ad00009014a0004003300000040008180480002
:100ae000020149008b05e900c909dd00830170009e
:100af0000100320013002000c814de004814dd009d
:100b00004709de001200b200c808de000884700049
:100b100085ff070001f0a1000cf0a70001f0a00084
:100b2000cdff37006120e100cfff32000801be0099
:100b30000200be00f7ff37006150e100fcff3a0001
:100b4000c9ff3700000278008001eb000200370087
:100b5000015a78008301e800828f5100fcff3a00bf
:040b6000000006008b
:020000040000fa
:1000080000000000000000000000000000000000e8
:1000180000000000000000000000000000000000d8
:10002800000000000000000000000000b6140000fe
:10003800fc1f000000000000000000006c09000028
:10004800281500000000000000000000fc1100005e
:10005800000000000000000056150000000000002d
:100068000000000000000000000000000000000088
:100078000000000000000000000000000000000078
:100088000000000000000000000000000000000068
:100098000000000000000000000000000000000058
:1000a8000000000000000000000000000000000048
:1000b8000000000000000000000000000000000038
:1000c8000000000000000000000000000000000028
:1000d8000000000000000000000000000000000018
:1000e8000000000000000000000000000000000008
:1000f80000000000000000000000000000000000f8
:1001080000000000000000000000000000000000e7
:1001180000000000000000000000000000000000d7
:1001280000000000000000000000000000000000c7
:1001380000000000000000000000000000000000b7
:1001480000000000000000000000000000000000a7
:100158000000000000000000000000000000000097
:100168000000000000000000000000000000000087
:100178000000000000000000124d00000000000018
:100188000000000000000000000000000000000067
:100198000000000000000000000000000000000057
:1001a8000000000000000000000000000000000047
:1001b8000000000000000000000000000000000037
:1001c8000000000000000000000000000000000027
:1001d8000000000000000000000000000000000017
:1001e8000000000000000000000000000000000007
:1001f80000000000000000000000000000000000f7
:1002080000000000000000000000000000000000e6
:1002180000000000000000000000000000000000d6
:1002280000000000000000000000000000000000c6
:1002380000000000000000000000000000000000b6
:1002480000000000000000000000000000000000a6
:100258000000000000000000000000000000000096
:020000040000fa
:0200000401f009
:04000800cfff000026
:020000040000fa
:0200000401f009
:04000c00f8ff0000f9
:020000040000fa
:0200000401f009
:040010001bff0000d2
:020000040000fa
:0200000401f009
:040014001fff0000ca
:020000040000fa
:0200000401f009
:04001800f7ff0000ee
:020000040000fa
:0200000401f009
:04001c00daff000007
:020000040000fa
:0200000401f009
:04002000cfff00000e
:020000040000fa
:100b64001201000000020000000000000008000064
:100b7400d8040000edf000000200000001020000b3
:100b840000010000090200006500000002010000ed
:100b940000c0000032090000040000000000000052
:100ba4000101000000000000092400000100000011
:100bb4000109000000010000010900000401000017
:100bc40000020000010300000000000007240000f0
:100bd40001000000014100000006000024020000a2
:100be40001010000000600002402000002020000cf
:100bf40000090000240300000103000001020000ba
:100c040001000000092400000302000004010000a8
:100c1400010100000009000005010000024000007d
:100c24000000000000000000052500000101000094
:100c340001090000058100000240000000000000de
:100c44000000000005250000010100000300000071
:100c54000403000009040000340300004d000000f8
:100c64006900000063000000720000006f000000d3
:100c740063000000680000006900000070000000cc
:100c84002000000054000000650000006300000024
:100c9400680000006e0000006f0000006c0000009f
:100ca4006f000000670000007900000020000000d1
:100cb400490000006e000000630000002e000000e8
:100cc40022030000540000006800000065000000da
:100cd40043000000650000006c0000006c00000090
:100ce4004d00000075000000730000006900000062
:100cf4006300000047000000650000006100000080
:100d040072000000c48500002a8600002e860000c0
:040d140062860000f3
:020000040000fa
:100d18000c00fa00881f7800211723000040eb0020
:100d280080487800f0978100308b8900b0fe810000
:100d3800408b890040fc2300104478000800fb0029
:100d4800cf80de003e04020000000000008fbe00dd
:100d58000804e00006003d000200200003382400db
:100d68001e00be00ca02020000000000008fbe0084
:100d78001e00be00508b8900618b89000000eb00cb
:100d8800708b89000d003700718b810000002100f5
:100d9800808040000040eb0080487800718b810023
:100da80040072500808040000040eb008048780024
:100db800708b81000000e800708b8900718b8100c6
:100dc800f0072000808f5000efff36000000eb0096
:100dd800708b89001c003700728b8100cf91de0078
:100de800020078008300780002002700220798009c
:100df8000300200033079800e40247001502be00f4
:100e08000001d0008401d000030041004220a80066
:100e1800858048004200a9004220ae004200a80098
:100e28000080d30034c1b300a30180000101780021
:100e3800a201880004487800a3018800708b810013
:100e48000000e800708b8900718b8100f0bf2000e2
:100e5800808f5000e0ff36000000eb00708b8900a7
:100e680009003700708b810080004000001d2400bd
:100e7800808040000071220080087800708b81001b
:100e88000000e800708b8900718b8100f00320005e
:100e9800808f5000f3ff360004c0270044079800f5
:100ea80005002000550798000042eb006801470044
:100eb8001200be00a301800001017800a201880091
:100ec80004487800a30188000000eb00708b8900bb
:100ed8000c003700718b8100708b810033c2b30026
:100ee800034140004408dd00e700400000452400bd
:100ef8000080400002487800708b81000000e80004
:100f0800708b8900708b8100ef0f5000f1ff360065
:100f1800006102000000000020c7280041022000f4
:100f28000e6602000000000011e1a80001000700a1
:100f3800feff37000200fa00b08c8200ff0f50005d
:100f4800e10036000049200010407800624060004f
:100f58000004e00001003200db003700c0ff810020
:100f68000000e00006003200c0ff810090407800d9
:100f780000c8b30000c060000004e0003e003a0072
:100f8800908982000000e0001c0032000017250054
:100f9800104078000004e00018003a00a0898200a0
:100fa8004200dd00800078006016220000804000ca
:100fb8000001780043c0b30011c0b30010c0b300f3
:100fc8002e4f020000000000c0ff8900a0898200a7
:100fd8000000e800a0898a00a18982000040200062
:100fe800808f500002003a000000eb00a0898a00c0
:100ff800908982000000e90090898a006089820057
:101008000000e0001c0032000017250010407800a6
:101018000004e00018003a00708982004200dd00f8
:1010280080007800601621000080400000017800f0
:1010380043c0b30011c0b30010c0b3002e4f02006c
:1010480000000000c0ff8900708982000000e800ed
:1010580070898a007189820000402000808f5000ca
:1010680002003a000000eb0070898a006089820063
:101078000000e90060898a00d0ff81000000e000dc
:1010880006003200d0ff81009040780000c8b3000d
:1010980000c060000004e0008b003a0023c0b300e9
:1010a800220e21008040eb0010c0b3002e4f02003a
:1010b80000000000d0ff8900200e21009040780039
:1010c8006009210001487800300e21009040780026
:1010d800500921000148780050092100104078008b
:1010e800e84f400078003a0060092100104078007d
:1010f800ef4f500074003a0040092100104078007a
:101108008040e8004009210001487800b01525001a
:1011180010407800e14f50000f003a00b11525004b
:101128000040eb00804878004109210010c0b3005e
:1011380080487800711425000040eb008048780052
:10114800110921000040eb00804878008114250037
:10115800e0c0b300804878000000eb00908488006d
:10116800c11525000040eb00804878000000eb0026
:10117800208b8a004009210010407800e54f50007c
:101188003a00360010092100104078000080fb006a
:10119800000f78001e007800ec0f50000b003e0096
:1011a800100020001e0178008200dd0010112100cf
:1011b800008060000000e00001003a0003003700f2
:1011c80001d9240010c0b3008048780070142500ad
:1011d800904078008014250001487800100921000b
:1011e800104078000080fb0000004000800078007c
:1011f800308b81000080400010007800804078002b
:10120800701425000148780010092100104078006a
:10121800ef4f500002003a000000eb00408b8a00bc
:101228001009210010407800ef4f500004003a00e8
:10123800110921000040eb008048780005003700c4
:1012480010092100104078008040e80010092100b2
:1012580001487800410921000040eb0080487800ef
:1012680011d9240010c0b300804878000017250069
:10127800104078000004e0000d003a000117250036
:1012880010c0b300804878000000eb0030898a0065
:10129800f1572200001020000108780001582200b0
:1012a800201020000108780005e1a800060037009a
:1012b8001117250010c0b3008048780001172500d9
:1012c8000040eb00804878000080fa00000006002b
:1012d8003600f800809fbe00829fbe00849fbe003b
:1012e800869fbe00881f78003200f800002020008a
:1012f80090018800000000000c00fa0020e62000a1
:1013080010007800e340600020e32000100078001f
:101318004300de007c40600080c07000600a21004d
:1013280001487800600a210010407800e140600020
:10133800400a210001487800600a21001040780026
:101348000080fb00620060000080d10080407800cf
:10135800300a210001487800600a21001040780016
:101368000080fb00700060004480de008040780050
:10137800200a210001487800600a21001040780006
:101388000080fb00680060004380de008040780039
:10139800100a210001487800600a210010407800f6
:1013a8000080fb00640060004280de00804078001e
:1013b800000a210001487800400a21001040780006
:1013c8000080fb004200dd0080407800300a2100e8
:1013d800104078000080fb004400dd0080c07000f1
:1013e800200a2100104078000080fb004300dd0047
:1013f80080c07000100a21001040780080c0700082
:10140800000a2100104078000080fb000000400026
:1014180000c0700080407800500a21000148780020
:1014280020e6200010007800e340600020e3200060
:10143800100078004300de007840600080c0700033
:10144800600a210001487800500a21001040780005
:101458000004e00018003200700a210010407800f3
:101468000004e00014003a00500a210010407800ff
:10147800e24f50001b00320030222000104078005c
:10148800614060000004e000fbff3200500a2100c8
:101498009040780000ccb30000c070008080fb0052
:1014a8004022200001087800710a210010c0b30012
:1014b800804878000b003700500a2100104078005f
:1014c8000004e00004003200500a210010407800b7
:1014d800e24f500003003a00710a21000040eb007f
:1014e80080487800d014250010407800e24f500062
:1014f80010003a00300a210010407800e14f5000f7
:1015080003003a0010002000708b8a0009003700a1
:10151800100a210010407800e14f500003003a0003
:1015280020002000708b8a00020037000000eb00ca
:10153800708b8a00b015250010407800e14f5000ec
:1015480074003a00f08a82000000e800f08a8a00fd
:10155800118b8200f08a8200808f50006800310071
:101568000000eb00f08a8a00308b82000000e00067
:101578004c003a00c015250010407800e14f50009b
:1015880048003a00e08480000000e800e084880019
:1015980030182500104078008080fb00e08480002f
:1015a800808f5000390031000000eb00e084880093
:1015b8001009210010407800ef4f500002003a0057
:1015c8000000eb00408b8a001009210010407800d1
:1015d800ef4f500004003a00110921000040eb00d1
:1015e8008048780005003700100921001040780075
:1015f8008040e80010092100014878007014250097
:1016080090407800801425000148780010092100d6
:10161800104078000080fb00000040008000780047
:10162800308b8100008040001000780080407800f6
:101638007014250001487800100921001040780036
:101648000080fb00500798005e009000ec0f5000ef
:101658000b003e00100020005e0190008200dd00bb
:1016680010112100008060000000e00001003a0035
:101678000300370001d9240010c0b3008048780067
:1016880011d9240010c0b300804878000042eb0054
:101698008041eb0082cfb30021c0b3000040eb00d3
:1016a800fe0d070000172500104078000004e00038
:1016b8000d003a000117250010c0b30080487800db
:1016c8000000eb0030898a00f1572200001020004a
:1016d8000108780001582200201020000108780035
:1016e80005e1a800060037001117250010c0b30057
:1016f80080487800011725000040eb0080487800fa
:10170800f08a8200e10f400002003a000000eb007e
:10171800f08a8a00008b8200e10f50000b003a002b
:10172800208b82000000e800208b8a00218b820039
:10173800c0c12000808f500004003600c0c12000c6
:10174800208b8a000000eb00008b8a00008b82004f
:101758000000e0001a003a00b0152500104078009b
:101768000004e00016003a00208b82000000e80028
:10177800208b8a00218b8200803e2000808f5000c1
:1017880009003a00711425000040eb0080487800f9
:10179800110921000040eb008048780081142500e1
:1017a800e0c0b30080487800218b8200c04420004c
:1017b800808f500002003600c0442000208b8a0031
:1017c800608b82000000e800608b8a00618b8200d9
:1017d800803e2000808f500004003600803e2000ac
:1017e800608b8a000000eb00508b8a00600a2100a1
:1017f800104078000004e000aa023200900a21009c
:10180800104078000004e000a6023a00000a210017
:1018180010407800e14f500016013a00400a2100bc
:1018280010407800e14f50004a003a00d0142500db
:1018380010407800e54f500004003a00811225005e
:1018480050c0b3008048780092023700b0152500d8
:1018580010407800e14f50002c003a00008b8200c5
:101868000000e00005003a000000eb00208b8a0031
:1018780010002000008b8a0086023700008b82004f
:10188800e10f500083023a00288b82006140b900c2
:101898003e0402000000000030079800410798004d
:1018a8000800e00008003d00020020000378240042
:1018b8003e009000ce009000ca0202000000000026
:1018c800300798004107980092a92a00a3d2230064
:1018d8003e009000ce0090003a0502000000000093
:1018e8000804020000000000108b8a00108b8200a0
:1018f800e40f500002003e0050002000108b8a00c8
:101908000000eb00008b8a0062023700b115250049
:1019180010c0b30080487800c115250010c0b3007e
:1019280080487800711425000040eb00804878005a
:10193800110921000040eb0080487800811425003f
:10194800e0c0b3008048780000a62e00f08a8a0024
:1019580050023700300a210010407800e14f500053
:1019680017003a00a0152500104078008040e800d4
:10197800a015250001487800a01525001040780022
:10198800e64f500003003a00a11525000040eb0087
:1019980080487800a0152500104078000080fb00e2
:1019a80080004000e02f23000080400010007800f5
:1019b800308b890020002000d08488003502370051
:1019c800200a210010407800e14f500063003a00df
:1019d800d0142500104078000004e00019003a00f7
:1019e800e10921000040eb00804878001100370031
:1019f800e0092100104078000081fb00e014250078
:101a0800104078008080fb004410dd008100400019
:101a180000252400808040000040eb0080487800ca
:101a2800e0092100104078008040e800e00921002a
:101a380001487800e009210010407800ef4f50007d
:101a4800ebff3600d014250010407800e24f50001c
:101a580010023a00f10921000040eb0080487800ac
:101a680039003700e10921000040eb008048780088
:101a780012003700f0092100104078000081fb00b7
:101a8800e0092100104078008080fb00400620001b
:101a98008010b8008100400000752400808040005c
:101aa8000040eb0080487800e009210010407800f1
:101ab8008040e800e009210001487800e0092100a1
:101ac8009040780030c6b30080cf5000e9ff360060
:101ad800e10921000040eb00804878001100370040
:101ae800f0092100104078000081fb00e009210086
:101af800104078008080fb004410dd008100400029
:101b080000552400808040000040eb0080487800a9
:101b1800e0092100104078008040e800e009210039
:101b280001487800e009210010407800ef4f50008c
:101b3800ebff3600f0092100104078008040e800f3
:101b4800f009210001487800f009210010407800d0
:101b5800ef4f5000c3ff3600ce013700100a2100b6
:101b680010407800e14f5000ca013a00f109210005
:101b78000040eb008048780039003700e109210077
:101b88000040eb008048780012003700f00921007f
:101b9800104078000081fb00e00921001040780027
:101ba8008080fb00400620008010b80081004000c3
:101bb80000752400808040000040eb0080487800d9
:101bc800e0092100104078008040e800e009210089
:101bd80001487800e00921009040780030c6b30041
:101be80080cf5000e9ff3600e10921000040eb00fa
:101bf8008048780011003700f00921001040780073
:101c08000081fb00e0092100104078008080fb0083
:101c18004410dd0081004000005524008080400011
:101c28000040eb0080487800e0092100104078006f
:101c38008040e800e009210001487800e00921001f
:101c480010407800ef4f5000ebff3600f0092100fc
:101c5800104078008040e800f00921000148780031
:101c6800f009210010407800ef4f5000c3ff360004
:101c780088013700d014250010407800e44f500048
:101c880084013200400a210010407800e14f5000e2
:101c980027003a00d014250010407800e54f500086
:101ca80004003a008112250010c0b3008048780073
:101cb8001f003700d0142500104078008040e8004d
:101cc800d014250001487800d01425001040780071
:101cd800e24f50000f003a000000eb00708b8900c3
:101ce80008003700718b8100400725008080400084
:101cf8000040eb0080487800708b81000000e8000d
:101d0800708b8900718b8100f0072000808f500054
:101d1800f4ff3600d014250010407800e44f50003e
:101d280003003a00d11425000040eb0080487800f9
:101d3800300a210010407800e14f500088003a0036
:101d4800d014250010407800e54f500004003a00f8
:101d58008112250020c0b300804878008000370039
:101d6800d0142500104078000004e0007c003a0000
:101d7800e0142500104078008040e800e0142500b9
:101d880001487800e014250010407800e64f500024
:101d980003003a00e11425000040eb008048780079
:101da800e0142500104078000080fb002007980010
:101db8002e009000e30f500038003200ae00900073
:101dc800e38f50000a003c002e019000e10f510003
:101dd8001e0032002e009000e10f500025003c004c
:101de800ae0090000100e0000e0032005c003700f9
:101df8002e019000e50f51003c0032002e009000ab
:101e0800e50f50002f003500ae009000e68f50001f
:101e1800400032002e019000e70f510047003200c9
:101e28004f003700a114250000c0eb00804878005f
:101e3800b11425000040eb0080487800c11425004b
:101e48000040eb008048780045003700a1142500c9
:101e58000040eb0080487800b114250000c0eb007a
:101e680080487800c11425000040eb0080487800c5
:101e78003b003700a11425000040eb0080487800a3
:101e8800b11425000040eb0080487800c1142500fb
:101e980000c0eb008048780031003700a11425000d
:101ea80000c0eb0080487800b114250000c0eb00aa
:101eb80080487800c11425000040eb008048780075
:101ec80027003700a114250000c0eb0080487800e7
:101ed800b11425000040eb0080487800c1142500ab
:101ee80000c0eb00804878001d003700a1142500d1
:101ef8000040eb0080487800b114250000c0eb00da
:101f080080487800c114250000c0eb0080487800a4
:101f180013003700a11425000040eb00804878002a
:101f2800b11425000040eb0080487800c11425005a
:101f38000040eb008048780009003700a114250014
:101f480000c0eb0080487800b114250000c0eb0009
:101f580080487800c114250000c0eb008048780054
:101f6800200a210010407800e14f50008f003a000d
:101f7800d014250010407800e54f500004003a00c6
:101f88008112250030c0b3008048780087003700f0
:101f9800f0142500104078000004e00015003a0015
:101fa800f10921000040eb00804878000c00370060
:101fb800f0092100104078008080fb00f014250013
:101fc8008080400010c0b30080487800f0092100ec
:101fd800104078008040e800f009210001487800ae
:101fe800f009210010407800e94f5000f0ff36005a
:101ff8006e003700f10921000040eb0080487800ae
:1020080025003700f0092100104078008080fb008f
:10201800f0142500808040000040eb0080487800e4
:10202800e10921000040eb008048780011003700ea
:10203800e0092100104078000081fb00f009210030
:10204800104078008080fb004410dd0081004000d3
:1020580000252400808040000040eb008048780084
:10206800e0092100104078008040e800e0092100e4
:1020780001487800e009210010407800ef4f500037
:10208800ebff3600f0092100104078008040e8009e
:10209800f009210001487800f0092100104078007b
:1020a800e94f5000d7ff3600f10921000040eb004e
:1020b8008048780039003700e10921000040eb0032
:1020c8008048780012003700f0092100104078009d
:1020d8000081fb00e0092100104078008080fb00af
:1020e800400620008010b8008100400000752400e0
:1020f800808040000040eb0080487800e009210023
:10210800104078008040e800e0092100014878008c
:10211800e00921009040780030c6b30080cf50001d
:10212800e9ff3600e10921000040eb008048780013
:1021380011003700f0092100104078000081fb00f1
:10214800e0092100104078008080fb004410dd0089
:102158008100400000552400808040000040eb00d2
:1021680080487800e0092100104078008040e800ad
:10217800e009210001487800e009210010407800ba
:10218800ef4f5000ebff3600f009210010407800b7
:102198008040e800f009210001487800f00921009a
:1021a80010407800ef4f5000c3ff3600100a21009e
:1021b80010407800e14f500036003a00d014250056
:1021c80010407800e54f500004003a0081122500c5
:1021d80040c0b300804878002e003700d014250096
:1021e80010407800e24f50002a0032009015250078
:1021f800104078008040e8009015250001487800dc
:102208009015250010407800f14f500003003a0067
:10221800911525000040eb008048780090152500b6
:10222800104078008080fb0040fc230000804000c4
:10223800104478000800fb00cf80de003e04020056
:1022480000000000008fbe000804e00006003d000a
:1022580002002000033824001e00be00ca0202004b
:1022680000000000008fbe001e00be00508b8900d9
:10227800618b890090152500104078000080fb00d4
:102288008000400060fd23000080400010007800be
:10229800408b8900910a210010c0b3008048780063
:1022a80049003700600a2100104078000004e0006f
:1022b80045003a00910a21000040eb008048780070
:1022c8000000eb00d08488000000eb00c084880088
:1022d800800a2100104078000004e00033003a0032
:1022e800000a210010407800e14f500036003a0003
:1022f800d014250010407800e44f500007003a0041
:102308007009210090407800d01425000148780019
:102318000000eb00508b8a0020003700508b8200b1
:10232800e10f500016003a00618b8200700c20000b
:10233800808f500012003e00d01425001040780015
:10234800e54f500004003a008112250060c0b30038
:102358008048780011003700d0142500904078009c
:102368007009210001487800d114250040c0b3004d
:10237800804878000000eb00508b8a000700370087
:10238800508b82000000e00004003a00100020009a
:10239800508b8a000000eb00608b8a00810a2100c4
:1023a80010c0b3008048780007003700000a2100f9
:1023b800104078000004e00003003a00810a210080
:1023c8000040eb008048780000e8a9000080fa008f
:1023d8003200f9004f0478004f03be004f02be00e0
:1023e8004f01be004f00be003600f9000040060055
:1023f800809fbe00821f78003200f8000020200075
:1024080090018800000000000000fa004401370035
:10241800602220001000780080407800f00a210037
:1024280001487800f00a2100104078000080fb0085
:102438004600de00e3406000e00a21000148780021
:10244800f00a210010407800ef406000c00a210027
:102458000148780010002000308b8a00e00a210033
:1024680010407800e24f50003f003a00c00a2100b7
:10247800104078000004e0000c003a00d114250058
:1024880030c0b30080487800b115250010c0b300f3
:1024980080487800c115250010c0b3008048780036
:1024a80050002000108b8a00d9003700c00a210094
:1024b80010407800e14f50000b003a00d01425007e
:1024c80010407800e54f5000d1003200d1142500ab
:1024d80050c0b30080487800811225000040eb000e
:1024e80080487800ca003700c00a210010407800f0
:1024f800e24f50000c003a00d114250020c0b30070
:1025080080487800b115250010c0b30080487800d5
:10251800c115250010c0b300804878005000200085
:10252800108b8a00ba003700c00a210010407800da
:10253800e44f500004003a00d114250010c0b30045
:1025480080487800b2003700c00a210010407800a7
:10255800e84f5000ae003a00d11425000040eb00cf
:1025680080487800aa003700e00a2100104078006f
:102578000004e00004003200e00a21001040780066
:10258800e14f50004e003a00d0142500104078006a
:102598000004e00004003200d01425001040780048
:1025a800e14f50000c003a00b11525000040eb0047
:1025b80080487800711425000040eb0080487800be
:1025c800110921000040eb008048780081142500a3
:1025d800e0c0b30080487800d0142500104078008f
:1025e800e24f500009003a00f00a2100104078003c
:1025f8000080fb007f0060000080d10080407800f0
:10260800701425000148780005003700f00a210001
:1026180010407800ef4060007014250001487800f1
:10262800f00a2100104078000080fb004400de0022
:10263800e7406000d00a210001487800d00a210054
:10264800104078000004e00006003200d00a2100a3
:10265800104078000040e90080407800e014250030
:1026680001487800d014250010407800e24f50004f
:1026780003003a002117250010c0b30080487800f5
:10268800d014250010407800e14f500004003200bb
:10269800d014250010407800e24f50005c003a004a
:1026a8007014250090407800000821000148780047
:1026b80011d9240010c0b3008048780054003700b6
:1026c800e00a210010407800e34f500050003a0023
:1026d800c00a2100104078000004e00045003a00dc
:1026e800611525000040eb0080487800b10a210000
:1026f8000040eb008048780039003700a10a21002b
:102708000040eb008048780011003700b00a210033
:10271800104078000081fb00a00a210010407800da
:102728008080fb004410dd0081004000005524003b
:10273800808040000040eb0080487800a00a21001b
:10274800104078008040e800a00a21000148780085
:10275800a00a210010407800ef4f5000ebff360030
:10276800a10a21000040eb008048780012003700e1
:10277800b00a2100104078000081fb00a00a210067
:10278800104078008080fb00400620008010b800d0
:102798008100400000752400808040000040eb006c
:1027a80080487800a00a2100104078008040e800a6
:1027b800a00a210001487800a00a21009040780072
:1027c80030c6b30080cf5000e9ff3600b00a2100c0
:1027d800104078008040e800b00a210001487800e5
:1027e800b00a210010407800ef4f5000c3ff3600b8
:1027f80007003700c00a210010407800e14f500060
:1028080003003a006115250010c0b3008048780025
:10281800d00a210010407800e74f50001d003e000c
:10282800d00a2100104078000080fb00e301b800c6
:10283800502223000000410090407800a014250099
:1028480001487800d00a2100104078000080fb0081
:10285800e300b8008000e800502223000080400018
:1028680090407800b014250001487800d00a210073
:10287800104078000080fb00e300b8008080e8008a
:10288800502223000080400090407800c0142500aa
:1028980001487800d0142500104078000004e000ba
:1028a80008003200d014250010407800e14f500095
:1028b80004003200d014250010407800e54f500085
:1028c80017003a0000172500104078000004e000c7
:1028d8000d003a000117250010c0b30080487800a9
:1028e8000000eb0030898a00f15722000010200018
:1028f8000108780001582200201020000108780003
:1029080005e1a800060037001117250010c0b30024
:1029180080487800011725000040eb0080487800c7
:102928002022200010407800614060000004e00090
:10293800b7fe3a0020222000104078006240600074
:102948000004e000010032002222a9000168a90069
:102958000080fa003200f9004f0178004f00be00f5
:1029680000400600809fbe003200f80000202000d2
:1029780090018800000000000000fa003189820000
:10298800a00f2000808f50000300320030898200a1
:102998000000e80030898a0030898200e10f500089
:1029a80009003a00111723000040eb008048780026
:1029b80020e320001000780080007800f100b300c8
:1029c80020e320000108780030898200e60f5000db
:1029d80009003a001117230010c0b300804878009e
:1029e80020e320009000780000f020008080700034
:1029f80020e320000108780030898200e30f5000ae
:102a08000300320030898200ea0f500005003a00c6
:102a1800011723000040eb00804878002023a8001d
:102a280013e1a80030898200ea0f500001003a0043
:102a380005e1a9000068a9000080fa003200f90049
:102a48004f00be0000400600809fbe003200f80024
:102a58000020200090018800000000000000fa001b
:102a68000108a9000017230010407800fe4f50000d
:102a780007003e0000172300104078008040e8005f
:102a880000172300014878002023a8000100370020
:102a980013e1a9000080fa003200f9004f00be00df
:102aa800004006003600f800809fbe00829fbe00ee
:102ab800849fbe00869fbe00889fbe003200f8003b
:102ac8000020200090018800000000000000fa00ab
:102ad80013e1a90000e0270001002000900707008b
:102ae80001c8a90020e3200090007800000f2f0003
:102af8008080600020e32000010878001017230080
:102b080010407800e14f500030053a0011172300bb
:102b180020c0b3008048780005e1a900d014250042
:102b280010407800e44f500045003a000000eb00e8
:102b3800f08588003f003700f08580008000400065
:102b4800001524000080400010007800ea0f5000b3
:102b580022003600f0858000800040000015240027
:102b6800008040009000780090082000808f50007e
:102b780006003600f0858000800040000015240023
:102b8800808040009008200080087800f18580004f
:102b9800100821008080400010c0b30080487800f1
:102ba800f08580008000400000152400008040006f
:102bb80010007800ea405000f08580006046b000c0
:102bc800014278008041780002cbb300b1c0b30065
:102bd8000040eb00b108070013003700f1858000c2
:102be800100821000080400010407800e14f50009c
:102bf8000d003a00f08580006046b0000042eb000e
:102c08008041780002cbb300b1c0b3000040eb00b4
:102c1800a2080700f185800010082100808040008c
:102c28000040eb0080487800f08580000000e80054
:102c3800f0858800f0858000ef0f5000beff34005b
:102c4800110b21000040eb0080487800010b2100a7
:102c58000040eb00804878000000eb00f085880019
:102c68000b023700210b21000040eb008048780060
:102c7800d014250010407800e24f50002e013a0091
:102c8800f08580008000400000152400008040008e
:102c980010017800f085800080004000001d2400ad
:102ca8000080400010007800800f510011003600ad
:102cb800f3858000f0858000800040000015240026
:102cc8000080400010017800f085800080004000fe
:102cd800001d240000804000100078000001510011
:102ce80083804100001d2400008040000208780015
:102cf80006003700f085800080004000001d240099
:102d0800808040000000eb0080087800f08580009b
:102d180080004000001d2400008040001000780062
:102d2800fe0f5000bc003600f08580004400dd0036
:102d3800e700400000252400008040001040780093
:102d48000004e000b4003a00f08580004400dd0093
:102d5800e7004000002524008080400010c0b30038
:102d680080487800f2858000438b8200f0858000df
:102d780080004000001d2400008040001000780002
:102d880074425000400620008010b80083004000c4
:102d9800007524000080400004487800f185800018
:102da800428b8200400620008008b8008200400064
:102db8000075240000804000104078000004e00006
:102dc80009003d00f1858000428b8200400620000a
:102dd8008008b80082004000007524008080400010
:102de800f0c7b300804878006015250010407800cf
:102df800e14f500070003a00308b82000000e00084
:102e08005b003a0010092100104078000080fb00a8
:102e1800e600b80080007800408b8200808f500068
:102e28000a003100408b82008040780010092100a0
:102e3800104078000080fb00e600b80080c0500019
:102e4800300b21000148780003003700310b2100c6
:102e58000040eb0080487800300b210010407800db
:102e6800e24f500012003e00f485800070142500e7
:102e7800104078008081fb00f1858000428b820041
:102e8800400620008008b800820040000075240039
:102e980000804000104178004420dd00830040009d
:102ea8000055240000804000024878005600370092
:102eb800210b210010c0b3008048780010092100c0
:102ec80010407800ef4f500011003a00f485800060
:102ed800308b810090017800f1858000428b820060
:102ee800400620008008b8008200400000752400d9
:102ef80000804000104178004420dd00830040003d
:102f08000055240000804000024878003e00370049
:102f1800f485800010092100104078000080fb0033
:102f28000000400080007800308b81000080400065
:102f38000080e80090017800f1858000428b8200d3
:102f4800400620008008b800820040000075240078
:102f580000804000104178004420dd0083004000dc
:102f68000055240000804000024878002600370001
:102f7800f485800070142500104078008081fb00e3
:102f8800f1858000428b8200400620008008b8004e
:102f98008200400000752400008040001041780045
:102fa8004420dd00830040000055240000804000dc
:102fb8000248780014003700308b8200e10f50007f
:102fc80011003a00f4858000701425001040780044
:102fd8008081fb00f1858000428b82004006200042
:102fe8008008b8008200400000752400008040007e
:102ff800104178004420dd00830040000055240083
:103008000080400002487800410b210010c0b30046
:103018008048780027003700f08580008000400055
:10302800001524000080400010007800fd0f5000bb
:1030380020003e00f08580004400dd00e7004000ed
:10304800002524000080400010407800e14f500027
:1030580018003a00f08580004400dd00e7004000d9
:10306800003524000080400010407800e14f5000f7
:1030780010003a00f08580004400dd00e7004000c1
:1030880000252400808040000040eb008048780044
:10309800f1858000428b8200400620008008b8003d
:1030a8008200400000752400808040000040eb0052
:1030b80080487800f2858000f0858000800040001c
:1030c8000015240000804000900178008200410033
:1030d800001d2400008040000308780010d9240057
:1030e80010407800e14f500013003a000000eb0058
:1030f800d08588000d003700f0858000c300dd0012
:10310800d085800080804000f007200081005000ba
:1031180040072500808040000040eb008048780090
:10312800d08580000000e800d0858800d085800028
:10313800e70f5000f0ff3400f08580004400dd0008
:10314800e70040000035240000804000104078006f
:10315800e14f50000c003a00f08580004400dd008b
:10316800e70040000025240000804000104078005f
:103178000004e00004003a00200b21001040780011
:103188000004e000130032006015250010407800ac
:10319800e14f500025003a0010d924001040780073
:1031a800e14f500021003a00f2858000801425008c
:1031b800104078008080fb004410dd008100400052
:1031c8000055240000804000104078000004e00012
:1031d80016003200f08580004400dd00e700400062
:1031e8000065240000804000104078000042eb0099
:1031f8008041780072c9b30091c0b3000040eb0071
:1032080026070700f08580004400dd00e700400045
:1032180000352400808040000040eb0080487800a2
:10322800010b210010c0b30080487800f0858000b1
:103238004400dd00e7004000002524000080400035
:1032480010407800e14f50000c003a00f0858000f3
:103258004400dd00e7004000003524000080400005
:10326800104078000004e00004003a00200b210020
:10327800104078000004e0001300320060152500bb
:1032880010407800e14f50007e003a0010d9240029
:1032980010407800e14f50007a003a00f285800033
:1032a80070142500104078008080fb004410dd0079
:1032b8008100400000552400008040001040780044
:1032c8000004e0006f00320060152500104078000f
:1032d800e14f500028003a0010d92400104078002f
:1032e800e14f500024003a00f28580007014250058
:1032f800104078008080fb004410dd008100400011
:103308000055240000804000104078000004e000d0
:1033180019003200f28580007014250010407800f2
:103328008080fb004410dd0081004000005524002f
:103338000080400010417800f08580004400dd00e6
:10334800e7004000004524000080400090407800dd
:10335800708b8200ec00b80000c040000242780088
:103368008041780072c9b30091c0b3000040eb00ff
:10337800ca06070017003700f1858000428b8200db
:10338800400620008008b800820040000075240034
:103398000080400010417800f08580004400dd0086
:1033a800e70040000045240000804000904078007d
:1033b800708b8200ec00b80000c040000242780028
:1033c8008041780072c9b30091c0b3000040eb009f
:1033d800b2060700f3858000f08580004400dd0018
:1033e800e70040000045240000804000904078003d
:1033f800708b8200ec00b80000c140004418dd006a
:10340800e700400000652400008040000248780082
:10341800110b210010c0b30080487800f0858000af
:103428004400dd00e70040000035240080804000b3
:1034380010c0b300804878000000eb00d0858800f9
:103448000d003700f0858000c300dd00d0858000c6
:1034580080804000f00720008100500040072500d0
:103468008080400010c0b30080487800d08580007c
:103478000000e800d0858800d0858000e70f500064
:10348800f0ff3400f08580000000e800f085880037
:10349800f0858000ef0f5000f2fd340010d92400b1
:1034a80010407800e14f5000b2003a00d0142500d7
:1034b800104078000004e00029003a00701425004c
:1034c800104078000080fb008000400000152400b8
:1034d8000080400010007800ea0f500020003600fd
:1034e80070142500104078000084fb00e0142500cb
:1034f800104078008084fb0070142500104078008c
:103508000080fb008000400000152400008040007f
:103518001000780001070700004178004440dd00f2
:1035280089004000004524000080400002487800df
:1035380070142500104078000081fb00e01425007d
:10354800104078008080fb004410dd0081004000be
:10355800002524008080400010c0b3008048780017
:103568000000eb00f08588002a0037008014250051
:10357800104078000080fb00f18580004400dd00e9
:103588008100400000352400008040001040780091
:10359800e14f50001c003a008014250010407800cc
:1035a8000080fb00f18580004400dd0081004000c0
:1035b800006524000080400090417800f08580007c
:1035c8008040780000c9b30000c040000041780086
:1035d8000042eb0091c0b3000040eb002f0607004b
:1035e80080142500104078000080fb00f1858000e1
:1035f8004400dd0081004000003524008080400048
:103608000040eb0080487800f08580000000e8006a
:10361800f0858800f0858000e50f5000d3ff340066
:103628000000eb00f08588004f003700701425007b
:10363800104078000080fb00f18580004400dd0028
:1036480081004000002524000080400010407800e0
:10365800e14f500041003a007014250010407800f6
:103668000084fb00f9858000701425001040780064
:103678000080fb00f18580004400dd0081004000ef
:103688000045240000804000104078000080fb00c6
:1036980071060700004178004440dd0089004000c1
:1036a800006524000080400002487800701425005e
:1036b800104078000080fb00f18580004400dd00a8
:1036c800810040000065240000804000904178009f
:1036d800f08580008040780000c9b30000c0400039
:1036e80000417800f4c7b30091c0b3000040eb007c
:1036f800ea05070070142500104078000080fb00e0
:10370800f18580004400dd00810040000035240080
:103718008080400010c0b30080487800f1858000a8
:10372800f014250000804000104078000004e000fc
:103738000a003a0070142500104078000080fb0051
:10374800f18580004400dd00810040000025240050
:10375800808040000040eb0080487800f0858000c1
:103768000000e800f0858800f0858000e50f500033
:10377800aeff3400d014250010407800e14f50000f
:1037880041003a000000eb00b08588000000eb0023
:10379800f08588000b003700f0858000800040002d
:1037a800001524000080400090007800b08580005b
:1037b80000804000b0858800f08580000000e800a7
:1037c800f0858800f0858000ef0f5000f2ff34008c
:1037d800b08580004500de00b085880010d924003f
:1037e80010407800e14f500027003a00603524006f
:1037f80010407800e14f50000b003a00606524004b
:10380800104078000042eb008041780062c9b300a4
:1038180091c0b3000040eb00a0050700613524000b
:103828000040eb0080487800b08580000a06070059
:103838000043b000804078006045240001487800cb
:10384800b0858000ea0f50000f0036006045240064
:1038580010407800f4c7b3008041780062c9b30013
:1038680091c0b3000040eb008c05070061352400cf
:1038780010c0b3008048780060452400904078006c
:103888006065240001487800d014250010407800b5
:10389800e34f5000b0003a000000eb00e0858800dc
:1038a800a9003700e3858000e0858000c200dd00c4
:1038b8002031230000804000104078000080fb0089
:1038c80080004000c0ff2300008040001001780005
:1038d800e08580004200dd008000e8002031230000
:1038e80000804000104078000080fb00800040000d
:1038f800c0ff230000804000100078000001410054
:10390800e08580004200dd008080e800203123004f
:1039180000804000104078000080fb0080004000dc
:10392800c0ff230000804000100078000001410023
:10393800e08580004200dd00e300400020312300e4
:1039480000804000104078000080fb0080004000ac
:10395800c0ff2300008040001000780000014100f3
:103968008380410020012500008040000208780083
:10397800e085800080004000200125000080400094
:103988009000780050092000808f500016003e00fb
:10399800e1858000400f250000804000104078003d
:1039a800e14f500010003a00e1858000400f2500eb
:1039b800808040000040eb0080487800e18580006e
:1039c800401f230000804000104078000042eb00b8
:1039d8008041780082c9b30091c0b3000040eb0079
:1039e8002e05070055003700e08580008000400064
:1039f800200125000080400090007800800c200005
:103a0800808f500006003600e1858000400f2500b9
:103a180000804000104078000004e00006003200fa
:103a2800e1858000400f25000080400010407800ac
:103a3800e14f500041003a0010172500104078006f
:103a48000004e0003d003a000000eb00d08588004b
:103a580019003700e0858000d18580004300dd0033
:103a68000100400080004000603d230000804000cd
:103a780010007800e10f40000c003200e085800063
:103a8800d18580004300dd00010040008000400037
:103a9800603d230000804000900078000000210075
:103aa8008080400010c0b30080487800d085800036
:103ab8000000e800d0858800d0858000e70f50001e
:103ac800e4ff3400e1858000400f250000804000bd
:103ad800104078000004e00013003a00e1858000ff
:103ae800401f23000080400010407800f4c7b30056
:103af8008041780082c9b30091c0b3000040eb0058
:103b0800e604070030222000104078006140600081
:103b18000004e000fbff3200e085800080007800b0
:103b28004022200001087800e1858000400f250030
:103b38008080400010c0b30080487800e085800095
:103b48000000e800e0858800e1858000000320008f
:103b5800808f500053ff3400d014250010407800a7
:103b68000004e00004003200d01425001040780062
:103b7800e14f500019003a000000eb00f085880082
:103b880013003700f00e2000010020000e6602002e
:103b980000000000302220001040780061406000e2
:103ba8000004e000fbff3200f1858000800824005b
:103bb80000804000104078008080fb0040222000f8
:103bc80001087800f08580000000e800f085880092
:103bd800f0858000ff0f5000eaff3400d014250064
:103be80010407800e24f50009c003a002017250052
:103bf80010407800e14f500098003a000000eb00b8
:103c0800c08588008f003700601425009040780038
:103c1800701425001040780080cf50000500320055
:103c2800c185800060132500808040000040eb00c3
:103c380080487800c185800030172500008040004a
:103c4800104078000004e0002a003a00c085800097
:103c58000000400080017800c1858000428b82000e
:103c6800400620008008b80082004000007524004b
:103c780000804000104078000080fb004600de0015
:103c8800ef4060008008240000804100014878006f
:103c9800c0858000000040008001e800c1858000e8
:103ca800428b8200400620008008b8008200400055
:103cb800007524000080400010407800f2c3b30073
:103cc8008240600000c4b30000c0700080407800eb
:103cd800800824000080410001487800c1858000e8
:103ce800301725008080400010c0b300804878005d
:103cf8000e003700c085800000004000800078007a
:103d080080082400808040000040eb008048780054
:103d1800c0858000000040008000e8008008240082
:103d28008080400000c4b30080487800c0858000cf
:103d3800800040000015240000804000100078003a
:103d4800e90f500005003e00c185800030172500ae
:103d5800808040000040eb0080487800f00e200092
:103d6800010020000e660200000000003022200042
:103d780010407800614060000004e000fbff320062
:103d8800c085800000004000800078008008240082
:103d980000804000104078008080fb004022200016
:103da800010878003022200010407800614060004f
:103db8000004e000fbff3200c085800000004000e6
:103dc8008000e8008008240000804000104078004f
:103dd8008080fb0040222000010878006015250043
:103de800104078000004e00013003a00c18580000c
:103df800428b8200400620008008b8008200400004
:103e080000752400808040000040eb008048780066
:103e1800c285800070142500104078008080fb0067
:103e28004410dd00810040000055240080804000df
:103e38000040eb0080487800c08580000000e80062
:103e4800c0858800c0858000ef0f50006eff3400e9
:103e5800211725000040eb008048780070142500e9
:103e6800904078006014250001487800d01425009f
:103e780010407800e54f50003b003a000000eb008e
:103e8800f085880024003700302220001040780098
:103e9800614060000004e000fbff3200f085800014
:103ea80080004000c0ff2300008040001000780020
:103eb8004600de000080fb00ef006000402220008a
:103ec800010878003022200010407800614060002e
:103ed8000004e000fbff3200f08580008000400015
:103ee800c0ff230000804000100078008080fb00a5
:103ef800f003200080806000000420000080700033
:103f0800800078004022200001087800f0858000b9
:103f18000000e800f0858800f1858000f0032000ab
:103f2800808f5000d8ff34003022200010407800e5
:103f3800614060000004e000fbff3200d100200077
:103f4800402220000108780030222000104078002c
:103f5800614060000004e000fbff3200a100200087
:103f680040222000010878003000070001d9240011
:103f78000040eb008048780011d924000040eb0095
:103f8800804878002117230010c0b30080487800cb
:103f980001eba90001eba800111725000040eb0078
:103fa80080487800408b82000000e800408b8a003f
:103fb800418b820040062000808f500003003a00a9
:103fc800408b82000000e900408b8a000080fa00e4
:103fd8003200f9004f04be004f03be004f02be007e
:103fe8004f01be004f00be003600f9000040060039
:103ff800809fbe003200f800002020009001880059
:10400800000000000000fa000088a90001eba900e8
:10401800011725000040eb00804878000080fa0076
:104028003200f9004f00be00004006000400fa000c
:104038000000eb0030868800410c21000040eb00b6
:104048008048780030e32000104078000042b20039
:104058000004e000040032004118250060c3b300ea
:1040680080487800030037004118250020c1b300bc
:1040780080487800d014250010407800e14f5000a7
:1040880034003a0000d9240010407800e14f500075
:1040980030003a00500c2100104078008040e800c1
:1040a800500c210001487800500c21001040780085
:1040b800e44f500003003a00510c21000040eb008f
:1040c80080487800500c2100104078000080fb00e8
:1040d800100798001e009000e10f500012003200f7
:1040e8001e009000e10f500004003c001e009000ec
:1040f8000000e00008003200160037001e009000a3
:10410800e20f50000c0032001e009000e30f500038
:104118000d0032000f003700010821000040eb00bd
:10412800804878000b0037000108210030c0b30038
:10413800804878000700370001082100f0c0b3006c
:10414800804878000300370001082100c0c0b30090
:10415800804878000000eb0040868800ea013700bc
:10416800308b82000000e0000e003a001017250096
:1041780010407800e14f50000a003a004186800064
:1041880000002100808040000040eb00804878005b
:104198004186800040072500808040000040eb00f9
:1041a80080487800d0142500104078000004e00012
:1041b80032003a0070142500104078000080fb009f
:1041c800318680004300dd0001004000800040008f
:1041d800603d230000804000900078004086800009
:1041e800808f500022003a0030868000e70f500090
:1041f800bc013c0070142500104078000081fb00d1
:10420800e0142500104078008080fb004410dd0099
:1042180081004000003524000080400010407800f4
:10422800e14f500006003a004086800003c8b30002
:1042380002c8b30001c8b300e20307000800370052
:10424800b014250090417800c01425001041780072
:10425800a01425009040780040868000d90307000c
:10426800308680000000e800308688009d01370015
:10427800408680006f0407009a013700d01425009b
:1042880010407800e14f50001f003a00000821005c
:10429800104078000080fb00318680004300dd007c
:1042a8000100400080004000603d23000080400085
:1042b8009000780040868000808f50000f003a0000
:1042c80030868000e70f500086013c00401825002a
:1042d80090417800401825001041780040182500ca
:1042e8009040780040868000b60307003086800042
:1042f8000000e800308688007a0137004086800098
:104308004c04070077013700d014250010407800ce
:10431800e24f500053003a00400c21001040780052
:104328008080fb0040192300008040001040780086
:104338008080fb0040868000808f500025003a0076
:10434800400c2100104078000080fb00ef001000b6
:1043580070142500104078000080fb00808f50000a
:104368000a003a00310c21000040eb008048780038
:10437800210c21000040eb0080487800110c21003e
:104388000040eb00804878000c00370040182500fa
:1043980090407800300c2100014878004018250032
:1043a80090407800200c2100014878004018250032
:1043b80090407800100c210001487800400c210042
:1043c800104078008040e800400c21000148780047
:1043d80009003700310c21000040eb0080487800cc
:1043e800210c21000040eb0080487800110c2100ce
:1043f8000040eb0080487800418680004007250097
:104408000080400010407800e14f50000c003a0056
:104418004018250090407800300c210001487800b1
:104428004018250090407800200c210001487800b1
:104438004018250090407800100c210001487800b1
:10444800100c210090417800200c210010417800c8
:10445800300c210090407800408680005903070006
:1044680020013700d014250010407800e34f500099
:1044780045003a00400c2100104078008080fb0085
:10448800401a230000804000104078008080fb0024
:1044980040868000808f500012003a0040182500a6
:1044a80090407800300c2100014878004018250021
:1044b80090407800200c2100014878004018250021
:1044c80090407800100c210001487800400c210031
:1044d800104078008040e800400c21000148780036
:1044e80009003700310c21000040eb0080487800bb
:1044f800210c21000040eb0080487800110c2100bd
:104508000040eb00804878004186800000002100d0
:104518000080400010407800e14f500011003a0040
:104528004018250090407800300c210001487800a0
:104538004018250090407800200c210001487800a0
:104548004018250090407800100c210001487800a0
:104558004186800000002100808040000040eb0080
:1045680080487800100c210090417800200c210030
:1045780010417800300c210090407800408680007f
:1045880010030700d7003700d0142500104078002a
:10459800e44f500074003a00400c210010407800ad
:1045a8000080fb004300dd00e700400040868000fb
:1045b800808f500005003d00400c2100104078001d
:1045c8008040e800400c21000148780040868000c7
:1045d80080407800400c2100104078000080fb00eb
:1045e8004300dd0000c0500080407800000c21002e
:1045f80001487800000c2100104078000004e00019
:104608000d003a00c017230090407800300c2100bc
:1046180001487800d017230090407800200c210032
:1046280001487800e017230090407800100c210022
:104638000148780035003700400c21001040780010
:104648000080fb006f00100080004000001524006f
:104658000080400090007800000c21001040780095
:104668000080fb00f200b800808f50001e0036006a
:10467800000c2100104078000080fb00e301b80026
:10468800c01723000000410090407800300c210042
:1046980001487800000c2100104078000080fb00e1
:1046a800e300b8008000e800c01723000080400045
:1046b80090407800200c210001487800000c21006f
:1046c800104078000080fb00e300b8008080e8001c
:1046d800c01723000080400090407800100c210093
:1046e8000148780009003700310c21000040eb0038
:1046f80080487800210c21000040eb0080487800b9
:10470800110c21000040eb0080487800100c2100bb
:1047180010417800200c210010427800300c210054
:1047280090427800000c2100104078008080fb0047
:104738004017230000804000104078008080fb0074
:10474800400c2100104078000080fb004300dd0091
:10475800008040008241780004417800854078005c
:10476800980207005f003700d01425001040780039
:10477800e54f50005b003a00401825009040780053
:10478800300c21000148780040182500904078003e
:10479800200c21000148780040182500904078003e
:1047a800100c210001487800801225001040780084
:1047b8000080fb00000f78001e007800e30f500017
:1047c800280032001e007800e30f50000a003c0069
:1047d8001e007800e10f5000140032001e0078001f
:1047e800e10f500018003c001e0078000000e000b7
:1047f8000b0032003b0037001e007800e50f500028
:104808002a0032001e007800e50f50001e00350017
:104818001e007800e60f50002d00320031003700ee
:1048280040868000030307002e003700300c21006b
:1048380090407800408680008041eb000041eb000a
:104848006002070027003700200c21001041780083
:10485800408680008041eb008040eb005902070051
:1048680020003700100c210010407800448680009a
:10487800804178000041eb008040eb0004007800a4
:104888005002070017003700100c210090407800f4
:10489800200c21001041780040868000814178007a
:1048a8008040eb00470207000e003700100c210083
:1048b80090417800200c210010417800300c210034
:1048c80090407800408680003e02070005003700cf
:1048d800408680008041eb000041eb008040eb0007
:1048e8003802070020172300104078000004e00079
:1048f80002003a0040868000ce0207004086800011
:104908000000e8004086880041868000f00720000b
:10491800808f500012fe34000080fa00000006006c
:104928001600fa00881f7800008fbe000000eb0018
:10493800608688004a00370010172300104078006e
:104948000004e00021003a00648680006086800050
:1049580080004000401b23000080400010007800c9
:10496800cf80de000000400081804800808fd200a8
:104978008181d2000001780002f0a1001e00be0073
:1049880080024100150f980001814100220f980014
:1049980093018000720347001600be0001017800f1
:1049a8009201880000000000100078009301880040
:1049b800000000000001780084004200c0ff2300ce
:1049c80000804000020878002200370060868000de
:1049d800040220000002420060868000800040003f
:1049e800401b23000080400010007800cf80de00cc
:1049f8000000400081804800808fd2008181d20071
:104a08000001780002f0a1001e00be0080034100f2
:104a18007707980001814100020f980093018000f8
:104a28006e0147001200be00010178009201880063
:104a380000000000100078009301880000000000ca
:104a48000001780084004200c0ff2300008040007d
:104a580002087800608680000000e8006086880010
:104a680060868000ff0f5000b3ff3400101723004a
:104a780010407800e14f500005013a00201723004c
:104a880010407800e14f500074003a000000eb003d
:104a9800608688006c0037006086800080004000d7
:104aa800c0ff23000080400010017800608680006d
:104ab8008000400020d924000080400010007800c9
:104ac800800f51003700310063868000630798002b
:104ad800608680008000400020d9240000804000cb
:104ae800100478006140b9003e0402000000000094
:104af80040079800510798000800e00008003d00b2
:104b080002002000037824004e009000de00900090
:104b1800ca020200000000004007980051079800f0
:104b28006086800080004000c0ff230000804000b5
:104b3800100478006140b9003e0402000000000043
:104b480020079800310798000800e00008003d00a1
:104b580002002000037824002e009000be00900080
:104b6800ca020200000000002007980031079800e0
:104b78002e019000be0190004e009000de009000d3
:104b8800c8020200000000000001be00ee02900012
:104b9800c228dd0020f12400008040000288be0009
:104ba8000600370060868000c200dd0020f1240086
:104bb800008140006000b8000089be00688680005f
:104bc80060868000c200dd0020f1240000804000e3
:104bd8001002be0060868000c200dd0020e12400d3
:104be800008040001001be000400be003a0502002b
:104bf800000000000001be00c240dd0020f12400da
:104c0800008040000288be006886800060868000c0
:104c1800c200dd0020f12400008040001000be002a
:104c28000804020000000000000178008800440029
:104c3800c0ff2300008040000208780060868000e2
:104c48000000e8006086880061868000f00320008c
:104c5800808f500090ff3400210037000000eb00e7
:104c6800608688001a0037006286800060868000af
:104c780080004000c0ff23000080400090017800c1
:104c88008200410020d924000080400003087800f9
:104c980068868000608680008000400020d924005b
:104ca80000804000100078009e65020000000000af
:104cb8000001be00c240dd0020e124000080400069
:104cc8000288be00608680000000e80060868800d8
:104cd80061868000f0032000808f5000e2ff3400de
:104ce8000000eb0060868800660037000080eb005b
:104cf80050868800608680000000400080004000e8
:104d0800c0ff23000080400090007800508680009b
:104d1800808f50000700310060868000000040004e
:104d280080004000c0ff2300008040001000780091
:104d38005086880060868000000040000000e8007f
:104d480080004000c0ff23000080400090007800f1
:104d580050868000808f50000800310060868000f7
:104d6800000040000000e80080004000c0ff230071
:104d7800008040001000780050868800608680001f
:104d8800000040000002b00080004000c0ff230087
:104d9800008040009000780050868000808f50008e
:104da8000800310060868000000040000002b0006a
:104db80080004000c0ff2300008040001000780001
:104dc8005086880060868000000040001002b00015
:104dd80080004000c0ff2300008040009000780061
:104de80050868000808f5000080031006086800067
:104df800000040001002b00080004000c0ff230007
:104e0800008040001000780050868800608680008e
:104e18005286800080004000001524000080400079
:104e280002087800608680000000400000017800d9
:104e3800508680004600de00ef40600080082400b5
:104e480000004100014878006086800000004000b2
:104e58000001e80050868000f6c3b3008640600079
:104e680000c4b30000c070008040780080082400af
:104e78000000410001487800608680000000e800da
:104e88006086880060868000ef0f500097ff34002e
:104e98004f0478000080fa00000006000600fa00bf
:104ea800004f780011479800224798003347980030
:104eb800444798006000b800108b8800218b880058
:104ec8009e4078006fc06000118b80000080fb005e
:104ed8006f0060004401dd00f0f02f00808060006a
:104ee80082807000118b88001e409000ef406000a7
:104ef800108b80008180fb006f81600001ff2f0014
:104f08000100600002007000108b8800301621003c
:104f18002e4190000248780040162100be419000c2
:104f28000348780050162100ce40900001487800d0
:104f38001e409000e24f500023003a008089820012
:104f4800c200dd006016220000804000128b800045
:104f5800238b80000288be00808982000000e80060
:104f680080898a008189820000402000808f50005b
:104f780006003a000000eb0080898a00e00c21005e
:104f880090407800e00c2100014878009089820068
:104f98000000e80090898a00918982000040200082
:104fa800808f50002a003a00908982000000e900b2
:104fb80090898a00e00c210090407800e00c2100e4
:104fc800014878002200370050898200c200dd00c5
:104fd8006016210000804000128b8000238b800027
:104fe8000288be00508982000000e80050898a00cb
:104ff8005189820000402000808f500006003a004e
:105008000000eb0050898a00e00c210090407800f5
:10501800e00c210001487800608982000000e80067
:1050280060898a006189820000402000808f5000da
:1050380007003a00608982000000e90060898a0060
:10504800e00c210090407800e00c21000148780035
:105058000080fa00000006000600fa00000f780041
:105068001e007800cf80de003e0402000000000031
:1050780010079800210798001e00e00008003d0076
:1050880002002000037824001e009000ae0090006b
:10509800ca020200000000001007980021079800cb
:1050a800528b8100638b81001e009000ae0090003f
:1050b8003a05020000000000321f200013c0230040
:1050c8003a05020000000000080402000000000089
:1050d80080407800000d210001487800000d210073
:1050e800104078000080fb0000004000800078003d
:1050f800408b8100008040001000780080407800dc
:10510800f00c210001487800f00c210010407800d4
:105118000080fb000080fa00000006000600fa008c
:10512800000f78001e007800cf80de003e040200e9
:105138000000000010079800210798001e00e000fa
:1051480008003d0002002000037824001e009000a3
:10515800ae009000ca02020000000000100798008c
:10516800210798001e009000ae0090003233230003
:1051780033ef23003a050200000000000804020093
:105188000000000080407800100d210001487800e0
:10519800100d210090407800f0c5b30080cf50007a
:1051a80003003600110d2100f0c5b30080487800d7
:1051b800100d2100104078000080fb000080fa00ec
:1051c800000006001c00fa00000f78002147980034
:1051d80032479800434798001e007800f800b8004e
:1051e800b08688001e007800f800b800680040000b
:1051f800a08688001e007800f800b8007000400003
:10520800908688000000eb00c08688008400370084
:10521800b1868000c08680008080400071079800b9
:10522800c1868000a03023000080400090407800b4
:105238003e40900000c060000004e000030032001f
:1052480060c2b300404f98000200370031c1b3007c
:10525800414f9800fe0190004f99de007e029000b9
:10526800040078008200780005002700050f9800e8
:1052780002002000120f9800f00247001502be003d
:105288000001d0008401d000030041004220a800a2
:10529800858048004200a9004220ae004200a800d4
:1052a8000080d300a301800001017800a2018800da
:1052b8004e4a900004487800a3018800a186800027
:1052c800c08680008080400051079800c186800019
:1052d800a030230000804000904078002e409000cd
:1052e80000c060000004e0000300320065c2b300a3
:1052f800054f98000200370030c1b300004f9800f6
:10530800de0090004f89de00de0190000300780087
:105318008200780004002700240f98000500200070
:10532800350f9800f40147001301be000002d000b9
:105338008202d000050042004220a8008380480075
:105348004200a9004220ae004200a8000080d3001d
:10535800a301800001017800a20188008e48900016
:1053680001487800a301880091868000c0868000eb
:105378008080400031079800c1868000a03023005b
:1053880000804000904078004e40900000c06000cf
:105398000004e0000300320062c2b30052479800e4
:1053a8000200370033c1b300534798003e02900013
:1053b8004fa1de00be029000050078008200780050
:1053c80002002700420f980003002000530f9800a6
:1053d800f80247001502be000001d0008401d00089
:1053e800030041004220a800858048004200a9002f
:1053f8004220ae004200a8000080d300a301800034
:1054080001017800a20188005e42900004487800fb
:10541800a3018800c08680000000e800c0868800dc
:10542800c0868000e70f500079ff36000080fa0040
:10543800000006000e00fa00000f78001e00780039
:10544800f800b800f08688001e007800f800b80060
:1054580068004000e08688001e007800f800b80068
:1054680070004000d08688000000eb0000878800ac
:1054780054003700f18680000087800000814000da
:10548800cf91de0002007800830078000200270038
:105498001207980003002000230798008e82e80076
:1054a8001502be000001d0008401d00003004100b5
:1054b8004220a800858048004200a9004220ae0092
:1054c8004200a8000080d30034c1b300a3018000cb
:1054d80001017800a201880004487800a30188002f
:1054e800e18680000087800000814000cf91de00c7
:1054f8000200780083007800040027003407980031
:105508000500200045079800e60147001301be008a
:105518000002d0008202d000050042004220a8000c
:10552800838048004200a9004220ae004200a80043
:105538000080d30034c1b300a301800001017800ca
:10554800a201880004487800a3018800d186800061
:105558000087800000814000cf91de0002007800c3
:1055680083007800020027005207980003002000fb
:1055780063079800ea0247001502be000001d00048
:105588008401d000030041004220a8008580480023
:105598004200a9004220ae004200a8000080d300cb
:1055a80034c1b300a301800001017800a201880082
:1055b80004487800a3018800008780000000e80004
:1055c8000087880000878000e70f5000a9ff360099
:0855d8000080fa00000006004b
:020000040000fa
:1055e000027c0000ca0000008100000000000000f2
:1055f00000000000000000000000000000000000ab
:10560000000000000000000000000000000000009a
:10561000000000000000000000000000000000008a
:10562000000000000000000000000000000000007a
:10563000000000000000000000000000000000006a
:10564000000000000000000000000000000000005a
:10565000000000000000000000000000000000004a
:10566000000000000000000000000000000000003a
:10567000000000000000000000000000000000002a
:10568000000000000000000000000000000000001a
:10569000000000000000000000000000000000000a
:1056a00000000000000000000000000000000000fa
:1056b00000000000000000000000000000000000ea
:1056c00000000000000000000000000000000000da
:1056d00000000000000000000000000000000000ca
:1056e00000000000000000000000000000000000ba
:1056f00000000000000000000000000000000000aa
:105700000000000000000000000000000000000099
:105710000000000000000000000000000000000089
:105720000000000000000000000000000000000079
:105730000000000000000000000000000000000069
:105740000000000000000000000000000000000059
:105750000000000000000000000000000000000049
:105760000000000000000000000000000000000039
:105770000000000000000000000000000000000029
:1057800074310000122000008100000001000000c0
:1057900007060000050400000302000000000000ee
:1057a0002000000013200000002000002000000066
:1057b0002013000000200000001300002000000063
:1057c000201300000020000000000000050d000074
:1057d000151d0000252d0000353d0000454d000041
:1057e000555d0000656d0000757d0000010300003f
:1057f00009110000191f0000233f0000435f000053
:10580000636500006d7500007d7f000008000000ea
:10581000090000000a0000000b0000000c0000005e
:105820000d0000000e0000000f000000030000004b
:10583000020000000100000000000000060000005f
:105840000700000017000000160000000400000020
:105850000500000011000000100000001f00000003
:105860001e000000190000001800000015000000d4
:105870001400000013000000120000001d000000d2
:105880001c0000001b0000001a0000003031000066
:10589000323300003435000036370000383900005c
:1058a0003a3b00003c3d00003e3f0000404100000c
:1058b00042430000444500004647000048490000bc
:1058c0004a4b00004c4d00004e4f0000505100006c
:1058d000525300005455000056570000585900001c
:1058e0005a5b00005c5d00005e5f000060ff00002e
:1058f000ffff0000ff00000000000000ff000000ac
:1059000000000000ffff0000ff000000ff0000009b
:10591000ff000000ffff000000000000000000008a
:105920000000000001000000020000000300000071
:105930000400000005000000060000000700000051
:1059400008000000090000000a0000000b00000031
:105950000c0000000d0000000e0000000f00000011
:105960000f0000000e0000000d0000000c00000001
:105970000b0000000a000000090000000800000001
:105980000700000006000000050000000400000001
:105990000300000002000000010000000000000001
:1059a00003000000070000000b0000000f000000d3
:1059b00002000000060000000a0000000e000000c7
:1059c0000100000005000000090000000d000000bb
:1059d0000000000004000000080000000c000000af
:1059e0000000000004000000080000000c0000009f
:1059f0000100000005000000090000000d0000008b
:105a000002000000060000000a0000000e00000076
:105a100003000000070000000b0000000f00000062
:105a20000000000001000000020000000300000070
:105a3000070000000b0000000f0000000e00000037
:105a40000d0000000c000000080000000400000031
:105a500005000000060000000a0000000900000028
:105a6000090000000a000000060000000500000018
:105a700004000000080000000c0000000d00000001
:105a80000e0000000f0000000b00000007000000e7
:105a90000300000002000000010000000000000000
:105aa0003e3200005e3200007e3200009e32000076
:105ab000be320000de3200008040000020100000f6
:105ac0000804000002010000000100002021000085
:105ad000020300002223000004050000242500002a
:105ae00006070000262700000809000028290000fa
:105af0000a0b00002a2b00000c0d00002c2d0000ca
:105b00000e0f00002e2f0000101100003031000099
:105b10001213000032330000141500003435000069
:105b20001617000036370000181900003839000039
:105b30001a1b00003a3b00001c1d00003c3d000009
:105b40001e1f00003e3f0000000100002223000055
:105b500002030000242500000405000026270000a1
:105b6000080900002a2b00000a0b00002c2d000061
:105b70000c0d00002e2f0000101100003233000029
:105b800012130000343500001415000036370000f1
:105b9000181900003a3b00001a1b00003c3d0000b1
:105ba0001c1d00003e3f000001080000232a0000e9
:105bb000030a0000252c0000050c0000272e000021
