:020000040000fa
:080000000002040000000000f2
:020000040000fa
:10040000af9021000eff27000e01880000000000c1
:100410000c00070000302100010020000f00070041
:10042000000020000000e000020032000000020096
:100430000000000060140200000000000040da002c
:100440000000fe00000020000000e000020032007a
:10045000000020009001880000000600a102880032
:10046000800078000000eb001a003700e2804000b6
:1004700054a0b4009101ba00e280400054a0b4003e
:100480009102ba00e280400054a0b4000002eb00e8
:10049000472bde00f507b200a6018800602ce100c2
:1004a00008003a000049eb000201e80002003900b0
:1004b0003420ec0002f0a0008301e900f9ff3e00c7
:1004c000040037006128e100010032000082eb00e7
:1004d000040007001101ba000200e000e3ff3a0047
:1004e0000000060004d0a300e20f49001c00390000
:1004f000810278003549ba000201e80002003900a3
:100500003420ec0002f0a0008301e9000f0032006b
:100510002549ba000201e800020039003420ec004d
:1005200002f0a0008301e900080032000400e000ae
:100530000600320015c9ba000201e80002003900c5
:100540003420ec0002f0a0008301e9008180e80083
:1005500054a0b4000300e000e2ff3a0000000600ef
:100560009102ba00055978008301e900f7ff3200d3
:10057000c82ade00055978008301e900f3ff320044
:100580000400e000f1ff320011d9ba00eeff37009d
:020000040000fa
:10000800f6140000f6140000f6140000f6140000c0
:10001800f6140000f6140000f6140000f6140000b0
:10002800f6140000f6140000f6140000f6140000a0
:10003800f6140000f6140000f6140000f614000090
:020000040000fa
:0200000401f009
:04000800cfff000026
:020000040000fa
:0200000401f009
:04000c00f8ff0000f9
:020000040000fa
:0200000401f009
:040010001bff0000d2
:020000040000fa
:0200000401f009
:040014001fff0000ca
:020000040000fa
:0200000401f009
:04001800f7ff0000ee
:020000040000fa
:0200000401f009
:04001c00daff000007
:020000040000fa
:0200000401f009
:04002000cfff00000e
:020000040000fa
:100600001111000011110000111100001111000062
:100610001111000011110000111100001111000052
:100620001111000011110000111100001111000042
:100630001111000011110000111100001111000032
:020000040000fa
:102600000a18000000010000820000000000010024
:10261000000200000300040000050000060007009f
:102620000008000009000a00000b00000c000d006b
:10263000000e00000f001000001100001200130037
:102640000014000015001600001700001800190003
:10265000001a00001b001c00001d00001e001f00cf
:10266000002000002100220000230000240025009b
:102670000026000027002800002900002a002b0067
:10268000002c00002d002e00002f00003000310033
:1026900000320000330034000035000036003700ff
:1026a0000038000039003a00003b00003c003d00cb
:1026b000003e00003f004000004100004200430097
:1026c0000044000045004600004700004800490063
:1026d000004a00004b004c00004d00004e004f002f
:1026e00000500000510052000053000054005500fb
:1026f0000056000057005800005900005a005b00c7
:10270000005c00005d005e00005f00006000610092
:10271000006200006300640000650000660067005e
:102720000068000069006a00006b00006c006d002a
:10273000006e00006f0070000071000072007300f6
:1027400000740000750076000077000078007900c2
:10275000007a00007b007c00007d00007e007f008e
:1027600000000000001000000a08000080000000c7
:042770000000000065
:020000040000fa
:102774005400f800a0028800034020001119ba0098
:102784003183ba008301e900fcff3a000000eb004a
:102794005400f900000006004700dd0083014000fa
:1027a400b21978008100e900fdff3a00000006003c
:1027b4005400f800a002880060398800513988006c
:1027c4008108bb00370024004739880007f0a000c7
:1027d4004200f800000780004220b70050052000a6
:1027e40070398800a00a20007039880047398800b1
:1027f400000000000000000029e7af00feff3700e2
:102804000000eb004200f9005400f900000006004b
:10281400000000005400f8008004780001047800ef
:10282400a00f2000a0028800010020000600200064
:10283400850020000308200001002000b248bb00ee
:1028440086d8bb00b258bb008301e900fbff3a0005
:1028540069398800583988002700240047398800de
:1028640007f0a0004200f800000780004220b700f3
:102874005005200070398800a00a200070398800b3
:1028840047398800000000000000000029e7af007d
:10289400feff37004200f900011020000800780014
:1028a40000804000000478008502e900e1ff3a005e
:1028b4000000eb005400f900000006002003200093
:1028c400303a880044c7bf00f043b20044e7b70081
:1028d40044c7bf0001ceb3000140600044e7b70025
:1028e4004827ef0040a7a90012002000a1092000fa
:1028f40080072000337420008049780081497800e3
:1029040082497800710520006004200023742000af
:102914008049780081497800824978003174200028
:1029240002c7b30011406100f04f5000fcff3a00b1
:1029340042c7bf000058a300fdff320059a7a900f9
:1029440058c7bf007f40600001cab3000140700057
:1029540058e7b7000010200010c0880002a0200033
:1029640002c0880001802f008100610021c088001e
:102974004711de006701610032c0880002042000b4
:1029840042c088000200210079ff070041c0800096
:1029940030c0800003002100a28021007eff0700d8
:1029a40021c0800010c0800081ff070021c080008a
:1029b400020021000000eb0096ff07000000210048
:1029c4000001eb000180210002187800810f500003
:1029d400fdff3a0021c0800010c0800002002100e9
:1029e40063ff0700ffff37000060fe00feff3700b3
:00000001FF
