:020000040000fa
:080000000002040000000000f2
:020000040000fa
:100400004f0521000eff27000e01880000000000ac
:100410000c000700204e2000010020000f00070004
:10042000000020000000e000020032000000020096
:10043000000000001c040200000000000040da0080
:100440000000fe00000020000000e000020032007a
:10045000000020009001880000000600a102880032
:10046000800078000000eb001a003700e2804000b6
:1004700054a0b4009101ba00e280400054a0b4003e
:100480009102ba00e280400054a0b4000002eb00e8
:10049000472bde00f507b200a6018800602ce100c2
:1004a00008003a000049eb000201e80002003900b0
:1004b0003420ec0002f0a0008301e900f9ff3e00c7
:1004c000040037006128e100010032000082eb00e7
:1004d000040007001101ba000200e000e3ff3a0047
:1004e0000000060004d0a300e20f49001c00390000
:1004f000810278003549ba000201e80002003900a3
:100500003420ec0002f0a0008301e9000f0032006b
:100510002549ba000201e800020039003420ec004d
:1005200002f0a0008301e900080032000400e000ae
:100530000600320015c9ba000201e80002003900c5
:100540003420ec0002f0a0008301e9008180e80083
:1005500054a0b4000300e000e2ff3a0000000600ef
:100560009102ba00055978008301e900f7ff3200d3
:10057000c82ade00055978008301e900f3ff320044
:100580000400e000f1ff320011d9ba00eeff37009d
:10059000fc030400000000001a0404000000000036
:0805a0000040da000000fe003b
:020000040000fa
:10000800260500002a050000d00200002e05000089
:100018003205000036050000d0020000d0020000c2
:10002800d0020000d0020000d0020000d40200007c
:10003800d0020000d0020000d0020000d002000070
:10004800d0020000d0020000d0020000d002000060
:10005800d0020000d0020000d0020000d002000050
:10006800d0020000d0020000d0020000d002000040
:10007800d0020000d0020000d0020000d002000030
:10008800d0020000d0020000d0020000d002000020
:10009800d0020000d0020000d0020000d002000010
:1000a800d0020000d0020000d0020000d002000000
:1000b800d0020000d0020000d0020000d0020000f0
:1000c800d0020000d0020000d0020000d0020000e0
:1000d800d0020000d0020000d0020000d0020000d0
:1000e800d0020000f80300001c030000d00200004a
:1000f800d0020000d0020000d0020000d0020000b0
:10010800d0020000d0020000d0020000d00200009f
:10011800d0020000d0020000d0020000d00200008f
:10012800d0020000d0020000d0020000d00200007f
:10013800d0020000d0020000d0020000d00200006f
:10014800d0020000d0020000d0020000d00200005f
:10015800d0020000d0020000d0020000d00200004f
:10016800d0020000d0020000d0020000d00200003f
:10017800d0020000d0020000d0020000d00200002f
:10018800d0020000d0020000d0020000d00200001f
:10019800d0020000d0020000d0020000d00200000f
:1001a800d0020000d0020000d0020000d0020000ff
:1001b800d0020000d0020000d0020000d0020000ef
:1001c800d0020000d0020000d0020000d0020000df
:1001d800d0020000d0020000d0020000d0020000cf
:1001e800d0020000d0020000d0020000d0020000bf
:1001f800d0020000d0020000d0020000d0020000af
:10020800d0020000d0020000d0020000d00200009e
:10021800d0020000d0020000d0020000d00200008e
:10022800d0020000d0020000d0020000d00200007e
:10023800d0020000d0020000d0020000d00200006e
:10024800d0020000d0020000d0020000d00200005e
:10025800d0020000d0020000d0020000d00200004e
:020000040000fa
:0200000401f009
:04000800cfff000026
:020000040000fa
:0200000401f009
:04000c00f8ff0000f9
:020000040000fa
:0200000401f009
:040010001bff0000d2
:020000040000fa
:0200000401f009
:040014001fff0000ca
:020000040000fa
:0200000401f009
:04001800f7ff0000ee
:020000040000fa
:0200000401f009
:04001c00daff000007
:020000040000fa
:0200000401f009
:04002000cfff00000e
:020000040000fa
:1005a800809fbe003200f800000020009001880003
:1005b800000000007182800030062000808f50000b
:1005c80006003a000000eb007082880080828800f4
:1005d800e000200090828800020037000100e80057
:1005e8007082880090828000ee0f50000a003a0066
:1005f80081828000e38f500009003c001602a800a9
:1006080020002000d08188005230ef000100e8006f
:1006180080828800020037000000e800908288008d
:100628000068a9003200f9004f00be000040060033
:100638003600f800809fbe00829fbe00849fbe00e7
:10064800869fbe00d181800020828000810f5000eb
:100658001a003a0001828000f07c2000808f500050
:10066800110034000642a8000000eb000082880058
:10067800d0818800328ea80000d925000100200012
:10068800e2000700328ea90000d9250001002000f1
:10069800de000700328ea80000d9250001002000e6
:1006a800da00070007003700f01d200001002000d5
:1006b800d60007004030ec00020037002182880095
:1006c8004030ef00d0818000e40f50001c00320061
:1006d80005003c00e20f50000a003200e30f500012
:1006e80038003a000c003700ec0f50001a003200b6
:1006f800fe0f500030003200eb0f500031003a007e
:100708001100370030002000d08188007e004000b2
:10071800901088002b0037001942e20004003d00c9
:100728000642a80040002000d0818800250037003c
:100738001662a800c0002000d08188002100370080
:100748003a30ef001f0037001662a800c0002000f2
:10075800d08188001b0037004030ef000942e200da
:1007680004003d000642a80040002000d081880017
:1007780002003700801080003ef0b7003c10ec000b
:10078800e0818800e80f500005003c00b000200020
:10079800d081880016a2a9001682a8000900370097
:1007a8003c30ef00e0012000d081880016a2a800ac
:1007b8001682a80003003700f0012000d0818800cd
:1007c8001642a800d0818000208288000648a9002f
:1007d8004f03be004f02be004f01be004f00be00d7
:1007e8003600f900004006000628a900004006006f
:1007f8008000eb000108780011009800568ea900cf
:1008080056aea9001742a9001782a800900620003a
:10081800a0108800d1108800e110880017e2a80015
:100828002648a8000648a9000000060000000600a7
:10083800889fbe0020032000303a880044c7bf00cc
:10084800f043b20044e7b70044c7bf0001ceb3008d
:100858000140600044e7b7004827ef0040a7a9001f
:1008680012002000a1092000800720003374200016
:100878008049780081497800824978007105200014
:1008880060042000237420008049780081497800a2
:10089800824978003174200002c7b300114061001a
:1008a800f04f5000fcff3a0042c7bf000058a300b9
:1008b800fdff320059a7a90058c7bf007f4060005c
:1008c80001cab3000140700058e7b7003e2eef00a0
:1008d80000f0270080718800328ea80000d925001a
:1008e8000100200049000700328ea90000d9250028
:1008f8000100200045000700328ea80000d925001d
:10090800010020004100070060042100518280009e
:100918000100010002012100600320000104200001
:10092800001978000000e800810f5000fcff3a0031
:10093800000121000080880018002000188088002d
:100948008000eb002180880031808800400221006f
:100958004080880058808800618088007180880005
:100968001000070005e1a800c8818800890021005f
:1009780028002000c0818000e10f5000fdff3a00f0
:100988003830ef00498288003882880060042100ee
:1009980061828000010001004610e200f5ff32008c
:1009a800faff37000021ef00002c21001008880012
:0c09b8000068a9002068a80000000600ec
:020000040000fa
:1009c4004610000008000000820000000000000043
:1009d40000fc03001a040000001000003a000000ac
:1009e400800000003a1000000c00000082000000ab
:1009f40000000000000000000000000000000000f3
:100a04004e100000060000008000000000000000fe
:020000040000fa
:100a1400f03fb1000180b10006003500ee0309008b
:100a240000000000403fb1000180b100fbff3d0029
:100a34001000b000203fb000020035000080090023
:080a44000000000000000600a4
:020000040000fa
:100a4c00c028a900ffff3700c068a900ffff3700ce
:100a5c00c048a900ffff3700c088a900ffff37007e
:080a6c00c0a8a900ffff37003c
:00000001FF
